S0120000736F632D656D7074795F322E733337B0
S214004000000001207D7A0000797A0000797A0000AD
S214004010797A0000797A0000797A0000797A0000CF
S214004020797A0000797A0000797A0000797A0000BF
S214004030797A0000797A0000797A0000797A0000AF
S214004040797A0000797A0000797A0000797A00009F
S214004050797A0000797A0000797A0000797A00008F
S214004060797A0000797A0000797A0000797A00007F
S214004070797A0000797A0000797A0000797A00006F
S214004080797A0000797A0000797A0000797A00005F
S214004090797A0000797A0000797A0000797A00004F
S2140040A0797A0000797A0000797A0000797A00003F
S2140040B0797A0000797A0000797A000029CA00002F
S2140040C0B5C90000B1C9000055C1000025CA0000EE
S2140040D0B9C90000D9C90000BDC90000FDAF000085
S2140040E06DCA0000797A0000797A0000797A0000BB
S2140040F0797A0000797A0000797A0000797A0000EF
S214004100797A0000797A0000797A0000797A0000DE
S214004110797A0000797A0000797A0000797A0000CE
S214004120797A0000797A0000797A0000797A0000BE
S214004130797A000010B5054C237833B9044B13B1D7
S214004140044800E000BF0123237010BD08010020D2
S21400415000000000E8F8000008B5034B1BB1034957
S214004160034800E000BF08BD000000000C0100206E
S214004170E8F80000154B002B08BF134B9D46A3F52F
S214004180803A00218B460F461348144A121A09F04B
S21400419066FA0F4B002B00D098470E4B002B00D032
S2140041A098470020002104000D000D48002802D08A
S2140041B00C4800E000BF09F023FA2000290002F0B6
S2140041C087FE09F009FA00BF000008000000012081
S2140041D0000000000000000008010020641E00200F
S2140041E0000000000000000037B50446684680E87E
S2140041F00600251D03C885E805002373069B23617A
S214004200BDF81C30A38200232360084B1A6812B93D
S2140042101C6004E00A4611680029FBD114609888E7
S214004220013080B2988003B030BD00BF2407002064
S21400423007B50379054A0193036806CA0093083058
S2140042400223FFF7D1FF03B05DF804FB1CD9000082
S21400425070B528242368ADF5047DB3F5804F054678
S2140042600E4614D21B6BB3F5804F10D25B6A4FF428
S214004270037201A90020984730B9236832461B6BA9
S2140042802946DB6A01A898470DF5047D70BD4FF4FA
S2140042900170F9E770B528252B68ADF5047DB3F5F8
S2140042A0804F05D34FF4017420460DF5047D70BD94
S2140042B01B6B002BF6D05B6A4FF4037201A900203B
S2140042C0984704460028EFD140F201262B68B3F544
S2140042D0804FE7D21B6BB3F5804FE3D29B6A002179
S2140042E001A89847B042F1D040F20323984218BF85
S2140042F00446D9E741F671320F4B10B5D969DA6337
S2140043009A680E4C22F44012A04288BF42F48012F3
S2140043109A600B4A0B4CD2F81832A04223F00203E4
S21400432088BF43F0020301F48031C2F8183211B19D
S2140043300022014BDA6310BD00000340C017530291
S21400434000C0074080F0FA02094B0022996C30B595
S214004350DC6C234642EA0104220C82701A0A210A07
S214004360C2701A0C1B0E047041700271437130BD8E
S2140043700080E00F202A0B681EBF4FF0FF319140EF
S2140043808B43590801F055315B1A03F033319B0813
S21400439003F033330B44017803EB13130A444FF056
S2140043A0013103F00F334B43A2EB136303707047E6
S2140043B073B50026044602AD05F8016D011D1B22EB
S2140043C02846FFF7D7FF60689DF80730B3EBD06F3D
S2140043D003D120F0784002B070BD28461B2204F1BD
S2140043E008018DF80760FFF7C5FFA0689DF8073045
S2140043F0B3EBD06F01D1C043EBE74FF0FF30EAE7F5
S2140044004BF29A22036810B5B2EB134F044611D153
S2140044109BB2012B0ED1FFF7CBFF431C0AD04FF601
S214004420FF72E068030C93420AD180B2C01A18BF2C
S214004430012010BD236801330CBF03200420F8E7D9
S2140044400220F6E737B5054601F10C04436901A9D9
S214004450012220469847BDF8043002A941F8083DDD
S2140044600122AB692046984703B030BD2DE9F043E2
S214004470054689B09946036908460E46174698478A
S214004480044600286CD1D9F804304FEA53285FEA76
S214004490580804F101036BD199F8032099F802300B
S2140044A01203DB0203F4006302F480521A43B9F8E5
S2140044B000306403C3F30A03134404F460441C444A
S2140044C02D4B1B22039327F07843FF4302A901A834
S2140044D002938DF80480FFF74DFF9DF80420029BA1
S2140044E008A843EAC26300F81D8D1B2201A927F025
S2140044F0784704930197FFF73DFF9DF80320019B43
S21400450008A943EAC26305934FF0FF339DF84020A5
S214004510069382F0010202F57F42FE3244EA02442C
S21400452041F8044DAB69012206F110009847AB69CB
S2140045300446012205A906F108009847AB69002841
S21400454018BF0446012204A9301D9847AB6900280D
S21400455018BF0446012203A93046984750B91CB13B
S21400456031462846FFF76EFF204609B0BDE8F083C7
S2140045701C468CE70446F3E701009AB2036803F092
S2140045807F03012B03D8406820F07C407047072B40
S2140045908CBFD81F0020704741F6713370B51C4C95
S2140045A00122E669E36341F20C03E25002236061F4
S2140045B0054623610021212006F4803609F08CF898
S2140045C018B90146212009F087F842F20C030122AF
S2140045D0E2500EB10023E363431C02D018B10D482D
S2140045E000E00D4870BD0D4B9B680A3303F01F02B8
S2140045F00123934023F003032B44AB4201D1002058
S214004600F0E755F8042B0132F7D00548EAE700BF7B
S2140046100000034024E000F021E000F00080E00FFE
S2140046200EE000F0002310B59A4201D1002010BD24
S21400463050F8234041F823400133F5E77047000067
S21400464041F67132044B0121DA6342F20C029950B2
S2140046500022DA63704700BF0000034041F6713263
S214004660034B0121DA6342F20C0200209950704796
S214004670000003402DE9F0418646406800283BD004
S214004680DEF80070904600243E4657F83450013459
S214004690C5F3130C013501D0614532D0844206F1D2
S2140046A00806F2D13868013031D0002507F1080637
S2140046B006E057F835203046013206F1080627D0C6
S2140046C00135A542F5D1032B16D0DEF80070386808
S2140046D0C0F30750032823D0002407F1080608E09B
S2140046E057F83400B446C0F30750032806F108060E
S2140046F017D00134A542F3D101238EF80830BDE867
S214004700F08141EA0351C6E90018BDE8F081384659
S214004710C1F3130141EA0353C0E90038BDE8F08154
S214004720BC46C1F3130141EA0353CCE90038BDE8A7
S214004730F08100234FF0FF3230B544689C4202D12E
S2140047400023037230BD016801EBC30541F8332036
S2140047506A600133F2E70000EFF3108272B6034B93
S2140047601A6003680846DB68184700BFB80F0020C9
S21400477070B50025044686B00562E369AB4202D8F0
S214004780206A06B070BD666C2068E36B05225B6924
S21400479001A906FB0500984701A8FFF731FE01288E
S2140047A098BF236A05F101059CBF01332362E4E745
S2140047B0F7B507460E460D467B6C86EA05045B4257
S2140047C01C40A5EB060001D003B0F0BDFB6B012238
S2140047D05B6901A928469847019B013301D104353E
S2140047E0EAE72046F0E7F0B5002504462E4687B0F7
S2140047F0E369B34202D8284607B0F0BD2368676C69
S214004800052207FB0637E36B01A95B693846984724
S21400481001A8FFF7F5FD012809D807F11401204685
S214004820FFF7C6FF636C143B834208BF01350136B1
S214004830DEE7F0B5046806460C1B416C0025B4FBA9
S214004840F1F487B0F36930685A1E9542776C06D348
S214004850716C306801FB0400143007B0F0BD013401
S214004860B4FBF3F103FB1144F36B05225B6901A96A
S21400487007FB0400984701A8FFF7C2FD0128E7D907
S2140048800135DFE72DE9F04F144607460E469946F8
S214004890C36B89B05B69012205A96068DDF84880B2
S2140048A09847FB6B01225B6904A930469847059B35
S2140048B05A1C06D10020A360A075607509B0BDE83B
S2140048C0F08F01214FF0000EA175217E049A04EBB3
S2140048D0C101CE61A1F820E0606802F07F05B04219
S2140048E0C2F3D31CE9B20CD14FF0FF33C4F800C0BA
S2140048F02175A360237D043B022B20D80020A075E1
S214004900DCE7206803F07F036045207D18BF84F84D
S21400491016E088421CBF0020A075012B8CBF00202B
S214004920012001298CBF0021012188421CBF0021E3
S214004930A175012D00F2D280012BDBD9D1E002F067
S2140049407F02012A0FD8FB6B02225B6906A930465C
S214004950984706A8FFF712FE237D032B69D8DFE8E9
S21400496003F06363040904A8F4E7CC21227E04EB79
S214004970C2021184684AD35C049D88F8003005F0B2
S2140049807F02012A88BF0025237E98BFC5F3C16534
S21400499004EBC303012A83F82250B3F820A000F2E8
S2140049A0A380FB6B02225B6906A93046984700236A
S2140049B00DF1200B0BF8113D202206A95846FFF7F3
S2140049C0D9FC1A2207A9FFF7D5FC9DF80F30079AE5
S2140049D0B3EB926F0CBF0123002308226375637D3F
S2140049E003B9A375A37D9BB1BAF1000F15D07B6CFC
S2140049F0B018594286EA000C1CEA010F1CBF0021C1
S214004A00A175591E01405B1A9A4584BF0023A37501
S214004A1094F816B0BBF1000F30D095B9E37D002BAB
S214004A2075D14FF0000B16E0227E04EBC202108414
S214004A30A0E7227E062B04EBC20210849AD901233B
S214004A409AE7012394F819B0E375BBF1000F24D15F
S214004A509D4228D165762AF00300304410441AF0AF
S214004A60030F7B6C18BF04305B4286EA00021342D9
S214004A7003D031463846FFF7DCFEA060A27D12B1B7
S214004A80236953442361237E012B0ED801332376FA
S214004A90B9F1000F0CD1A07D10E7012D37D0032D02
S214004AA008BFA376BDE79B46D5E70023A375F2E7CC
S214004AB0002AF0D0E37D002BEDD0BBF1000FEAD149
S214004AC0032DE8D0A1684B1CE5D0CDF8008001236B
S214004AD022463846FFF7D6FEA075DCE7012B3FF6E8
S214004AE009AF0023A37505E700231B2204A906A827
S214004AF08DF81830FFF73EFC9DF81830049AB3EB9B
S214004B00D26F0CBF012300230422637567E7A27DE2
S214004B104FF0010BB4E700BF16D7000013B50C46E4
S214004B20002100932176134661682246FFF7AAFE0D
S214004B3018B1E37D03B1A07EA075A07D02B010BDC4
S214004B40F0B50546002687B0EC69013CB44203D8B0
S214004B500C46204607B0F0BD01B14C1E6F6C2868AD
S214004B60EB6B05225B6901A907FB0400984701A8C7
S214004B70FFF746FC0128ECD901362146E4E7F0B5FC
S214004B8004460D46466CE36B006887B05B690522F9
S214004B9001A906FB0500984701A8FFF731FC01288C
S214004BA004D801A8FFF704FC07B0F0BD294620464C
S214004BB0FFF7C6FF0646676C2068E36B05225B6955
S214004BC001A907FB0600984701A8FFF7F1FB431C65
S214004BD0EAD0B54238BF0130E6E74369416CDA1DDA
S214004BE01439B2FBF1F28069013203EBC2020430E1
S214004BF000EB4200DA1CB2FBF1F203EBC203033314
S214004C00B3FBF1F3023301FB03007047214BD3F8EB
S214004C10F82102401CD1F0B4D3F8FC5103F5FC7423
S214004C20641BA410022CD3F8006212D0032C29D0E7
S214004C30012C1AD0184C05F10C026468C5E9004036
S214004C40C3F8FC21A96033680C333360F0BC7047AE
S214004C5070470422104C6468686098182C601960CD
S214004C60C3F8FC013260F0BC70471A4608240A4FAD
S214004C707F682F6042F8080B5960C3F8FC21346047
S214004C80F0BC7047044C6468A960C5E90040C3F8EE
S214004C90FC31E7E778170020001000E0837DDB0793
S214004CA001D5808A7047D0E901239B1A44BF828AC7
S214004CB09B1898B270470000044B5A6D22B958658D
S214004CC0A3F858100120704700207047C406002043
S214004CD00A20D0B50B4CE38C584308F0E1F90646A1
S214004CE0A08C0F4608F0DCF90022074B08F042FAC9
S214004CF002460B463046394608F066FB08F04CFC88
S214004D002083D0BDC40600200000F43F40F2E243FA
S214004D10074A10B51468584303FB0141536800F571
S214004D20807001EB500118441160506010BD00BF48
S214004D30C40600200022134670B58AB0D910415C24
S214004D4003F007042141CC0742BF0AA9891801F8DD
S214004D50283C03F1010348BF0132252BEED1002386
S214004D600D4DD910415C03F007042141C90707D552
S214004D70E91881F82A300133252BF2D10AB070BD2C
S214004D8093FBF2F102FB11310AAE314411F8286CA4
S214004D90EC1884F82A60EEE7C4060020024BD868B8
S214004DA080B28002704700BF0080E00F0C4B10B549
S214004DB00C4CE41A0C4B1C4424F4FF5424F01F043F
S214004DC0FFF7ECFFA04202D80024204610BD204684
S214004DD0FFF716FB0128F8D904F50054F0E700BFEA
S214004DE01000002004010020331901007FB50246A0
S214004DF06D460D4B03F110062C46186859680833AB
S214004E0003C4B3422546F7D1531E04A90F3211F846
S214004E10014D13F8010F844204D19342F7D10120CB
S214004E2004B070BD0020FBE7E8D6000070B5154D55
S214004E30286810BB144B154CE41A154B1C4424F47C
S214004E40FF5424F01F04FFF7A9FF844214D2666BB8
S214004E50A6B1FFF7A3FF864210D2FFF79FFF06F129
S214004E60400383420AD83046FFF7C0FF30B1F369EB
S214004E7033F0080302D02C60286870BD04F5005497
S214004E80E1E700BF8401002010000020040100209C
S214004E9033190100BFF34F8F0549064BCA6802F469
S214004EA0E0621343CB60BFF34F8F00BFFDE700BF48
S214004EB000ED00E00400FA0528231B68B3F5804FD8
S214004EC005D21B6BB3F5804F01D2DB6B184740F25F
S214004ED00110704728231B68B3F5804F05D21B6B63
S214004EE0B3F5804F01D29B6B184740F20110704714
S214004EF028231B68B3F5804F03D21968064A9142EF
S214004F0003D00023037083607047012202709A6802
S214004F109B694260F7E700BF07B0CD5E10B50C4650
S214004F2030B90448FFF7E4FF034B23600423A38053
S214004F30002010BDE0010020E401002010B508B3F9
S214004F40114B1A68918881421CD3998800248142AB
S214004F5081BF0121126899809A6099889A682AB957
S214004F6004B19A604FF6FF71998009E0884204D038
S214004F700131126889B20124F1E70CB198809A6079
S214004F80104610BD0022FBE72C07002037B50D4663
S214004F901446FFF7D3FFD8B10369828A63B14FF690
S214004FA0FE718A4208D1002069460090ADF80400E0
S214004FB0984738B103B030BD2B602280286848B9C6
S214004FC02080F7E7009B2B60BDF804302380F5E7D0
S214004FD00120EFE70020EDE737B50D461446FFF752
S214004FE0ADFF70B1036973B14FF6FE72818A9142CC
S214004FF009D10095ADF8044069460120984703B0F2
S21400500030BD0120FBE70E20F9E7000037B5044667
S2140050100379124A0333019300F14403009306CA4E
S21400502002231430FFF7E0F8228A237A0192E2681E
S21400503004F12C00009294E80600FFF7D5F8054628
S214005040237AA4F8450084F844302279216804F1D4
S214005050470008F0F9FA284603B030BD14D900001E
S21400506070B50E4C0E4B04F1100206460D4692E843
S214005070030083E803001846FFF7DAF80222094B1C
S21400508018341A7294E80300DE6083E803001D8279
S2140050901846BDE87040FFF7B9BF00BFE8D600006D
S2140050A0141700200C0500202DE9F0410546164691
S2140050B08846FFF7F3FDAB8A181A80B2864228BFEF
S2140050C0064637465FB93EB1D5E901329A4202BF7D
S2140050D0AB7D43F00103AB753046BDE8F081AB8A8B
S2140050E02C68A8681C44241AA3B2BB428CBF3C465A
S2140050F0A4B22246414608F0A7FAAB682968AA8AF5
S21400510023440A44A0449342A7EB0404AB60A7B22E
S21400511028BFA960D6E770B5044615461E4611B3EB
S214005120FFF7BCFDA38A181A80B2012829D9E37DAF
S21400513063B1E368628A1A70120A07D02068A18AEF
S214005140013301448B4228BF0346F4E70023638201
S214005150A3680222E36004F112012046FFF7A4FFD1
S214005160E37D0133E375324629462046FFF79CFF70
S214005170638A03446382E37D13B9238A034423824C
S21400518070BD0020FCE72DE9F0411646054688462E
S214005190FFF784FD864228BF0646B6B237464FB9AB
S2140051A02EB1AB7DDA0744BF23F00103AB75304662
S2140051B0BDE8F081AB8A2C6869681C44641AA3B207
S2140051C0BB428CBF3C46A4B22246404608F03CFA9E
S2140051D06B682968AA8A23440A44A0449342A7EB32
S2140051E004046B60A7B228BF6960D8E770B51E4696
S2140051F0038A04461546EBB9C27DDAB10123013AAB
S2140052000B70C27500F110010222FFF7BCFFE37DB0
S2140052109BB1228A2946B24228BF32462046FFF773
S214005220B2FF238A1B1A2382E37D13B9638A1B1AF3
S214005230638270BD00230B70EBE7638A2382E8E786
S21400524070B50D46A8B9FFF7F1FD446BFFF7EEFD0C
S21400525058B12346084C03F14006224618685968A0
S214005260083303C2B3421446F7D1044B2B60042321
S214005270AB80002070BD00BF88010020A801002080
S21400528038B5202204460D460C30002108F0E7F918
S21400529000234FF0FF32A375C4E90025A260E37532
S2140052A06376A376237638BD2DE9F04F0E460025AB
S2140052B08BB004464FF0FF311046C6F3130917466D
S2140052C09A468DF81350FFF7DBFF4E456BD12B4601
S2140052D0E1688B420DD0A26802EBC30052F833207F
S2140052E0551C0DD0C2F31302914509D141684D1CDF
S2140052F008D1237C002B58D147480BB0BDE8F08F6F
S2140053000133E6E73846FFF7BBFF0DF11303012232
S21400531039462046FFF702FC0028EAD09DF81330F5
S2140053208AF800300020E8E72368ED1A636CB5FBC6
S214005330F3F542E04046FFF7A3FF0DF11303029A90
S21400534041462046FFF7EAFB8646D8B1B11C03D09B
S214005350D8F80030B34215D19DF813302F4A8AF89A
S21400536000303B4602F1280B9446BCE80300DC45BF
S21400537018605960624603F10803F5D1F346DCF87D
S21400538000001860D8F8081032E0BBF1000FB3D068
S2140053904E45C7D19AF800307A68314604F10800C5
S2140053A0FFF768F9BEE7B31CA3D1E56A681CBBD15A
S2140053B0616A2046FFF7C4FB0546B31C18BF0123ED
S2140053C0DFF858800293636A626C0393236805A92A
S2140053D002FB053BE36B05225B695846984705A828
S2140053E0FFF70EF80BF1140319464FF0000B01936C
S2140053F04A1C05D0636C019A5B424A40134299D01E
S21400540029462046FFF79CFB039BAB42BDD0BBF171
S214005410000FBDD10546D6E70BE000F0D8100020FF
S2140054202DE9F04F4FF0FF33002589464FF6FF7108
S214005430044600F1080689B0C0E90913C362056294
S21400544005633046FFF775F92046FFF791F9002807
S2140054505ED14FF6FF7BD4F824800027D84514BFD2
S21400546045460025E3699F4255D32046FFF780F95D
S214005470002836D1B84D2046FFF7B5F92CE1236851
S214005480E26B606C576903A9052200FB0530B8473C
S21400549003A8FEF7B5FF0128074603D0C31EDBB2FC
S2140054A0012B15D829462046FFF769FB0246012F37
S2140054B094F85030676C2168009308BF0132434669
S2140054C007FB0511E06BFEF7D1FF2046FFF750F90A
S2140054D00135E3699D42D2D32046FFF749F90028FB
S2140054E0B7D000254FF0FF384FF6FF73C1462F4662
S2140054F0C4E90853E3699F4241D3A5EB0805012D93
S21400550060D84FF6FF72636A934270D1934DB2E74C
S21400551004F14008DDE7636CE26B2068D2F814C043
S21400552003A9052203FB0500E04703A8FEF768FF72
S214005530022812D0D84518D109F1010294F850304B
S214005540606C2168009300FB051104F14003E06BDA
S214005550FEF78CFF2046FFF70BF9E3690135B5FB34
S214005560F3F2013703FB12557CE729462046FFF786
S21400557006FBB0F1FF3F08BF4846421CDEE7636CFF
S214005580E26B2068D2F814C003A9052203FB0700CB
S214005590E04703A8FEF734FF824603A8FEF708FF9D
S2140055A0BAF1010F0CD8484538BF6762804528BF5E
S2140055B08046854238BF05468146236A013323620A
S2140055C0013797E74FF6FF7300256362E3699D4254
S2140055D097D2676C2068E36B05225B6903A907FB1B
S2140055E00500984703A8FEF7E3FE0135EEE7E26BF9
S2140055F0676C2068556903A9052207FB0300A847C6
S21400560003A8FEF7D5FE616C2268636A544D01FB61
S21400561003231433A3624FF0FF332A46E3626FF08E
S21400562001010DF10B032046FFF73EFE002857D17F
S214005630AB68E362E56A20462946FFF7B9F82063BF
S21400564020B9E16A2046FFF7F4F8E06229462046D2
S214005650FFF7EFF80546A36A9D4243D16369656C80
S2140056602046A5F11402DD1CB5FBF2F503EBC505DB
S2140056700335B5FBF2F5FFF7B6F8AB1C984281464A
S21400568042D2616A2046FFF75BFA01268046033560
S21400569004F1400A731E994515D82368676C0522E5
S2140056A007FB0837E36B03A95B693846984703A8EE
S2140056B0FEF77EFE94F85030024600933946534675
S2140056C0E06BFEF7D3FE41462046FFF739FA013677
S2140056D0B5428046DED1234D284609B0BDE8F08F9E
S2140056E0A36AA6E729462046FFF762F8236B2946F9
S2140056F00344074623632046FFF79BF80546002F22
S214005700A9D1C4E90B07A6E73046FFF712F8164DF5
S214005710A16AE36A994201D04B1C01D10025AAE692
S2140057202846FFF7ADFD0DF10B0301222946204662
S214005730FFF7F4F930B1D5E900129DF80B3030468A
S214005740FEF798FFA9684A1CE3D169682046FFF770
S21400575070F80146DDE700BF03E000F016E000F059
S214005760AC10002013E000F0041100202DE9F04FEB
S214005770354C85B0E369019003F48033029341F61B
S21400578071334FEA820BE363012241F20C038A462F
S214005790074689465E46E2500EB930462FE007F5CA
S2140057A0005525F4FF5525F01F056761ED1BE269DE
S2140057B0B54228BF3546520735D4D9F8001009F14E
S2140057C00402A161A5F10408B8F1000F0ED104226D
S2140057D041462261212007F07FFF80B9212007F093
S2140057E07BFF60B92F44A944761BD5E708210846FD
S2140057F0039207F071FF039A78B10423236142F203
S2140058000C020121104B9950029A0AB10022DA6369
S214005810431C0BD070B10D4809E052F8041BA8F1E8
S2140058200408A161D0E74FF0FF30E8E7084805B06C
S214005830BDE8F08F5A465146019807F018FF002839
S214005840044808BF0020F2E70000034024E000F010
S21400585021E000F010E000F02DE9F04385B0884626
S2140058606946044681E80C000C9EBDF83470FFF7CC
S21400587065FB4FF6FE7905460DB1444505D94FF652
S214005880FF74204605B0BDE8F0832B7A9DF804200F
S2140058909A421ED10099686807F0E9FEC8B9002E42
S2140058A0EFD02B69AA8AA3B14A4509D10290ADF878
S2140058B00C0002A9984760B9029BBDF80C2043B1C2
S2140058C0974206D13A461946304607F0D0FE0028E1
S2140058D0D7D001342D68A4B2CEE70000F0B5354C21
S2140058E085B011464FF486701F461646FFF78EF9B0
S2140058F0236925462BB94FF48370FFF787F905B067
S214005900F0BD002F08BF082E21D16A46022120686C
S21400591002F0D6FB636860615B7A04F118012376B7
S2140059209DF800300220DA1F53425341627E63F333
S2140059300002029B6276E361BDF80230638323694E
S214005940984701220021206802F0C2FBD7E7002F0B
S21400595008BFB6F5800F03D1002101209847CEE797
S214005960002306F44052134309D04FF480714FF4DD
S2140059708170FFF74BF9236900210320EEE700232F
S21400598006F4A062134308D001214FF48170FFF79C
S2140059903DF92B690021FF20E0E7002306F0A05226
S2140059A0134319BF012140F2011031464FF48370B2
S2140059B0EDE700BF381500207FB502238DF80C30C8
S2140059C0064B5A8B596903320292186801AA02F0F4
S2140059D07BFB019807B05DF804FB00BF381500207C
S2140059E008B500214FF48570FFF710F90022044B2C
S2140059F003211A6118680122BDE8084002F0DCB8ED
S214005A003815002013B50D4B01281B880C4CADF83B
S214005A100430ADF8003002BF02238DF804300423B2
S214005A2001A9206808BF8DF8003002F0A1FA694687
S214005A30206802F0BDFA02B010BD00BF08D7000013
S214005A403815002037B50022114C437A009260606A
S214005A50D0E90021206802F0BCFB238CDB050CD5C6
S214005A6063680C4D1A7A2978914206D0012A06D02E
S214005A70022A08D063681B7A2B7003B030BD2068FA
S214005A8002F06DFBF6E7206802F07CFBF2E700BF51
S214005A9038150020210700207FB51A4C1948637A74
S214005AA00133DBB2272B88BF25236372FFF7CAFFBB
S214005AB0257B627C144C15494FF400730232206833
S214005AC002F0DEFA6368124A5B7A05F001052846A2
S214005AD0D65CFFF797FF42F2107300220293012371
S214005AE000928DF80C30314602AB206802F068F860
S214005AF028B1FFF775FFFFF7CFFF04B070BD054B69
S214005B002361FAE724010020381500203401002024
S214005B10E9D800007166000038B50D4611462C68BD
S214005B200144A41A224607F0B1FD2C6038BD0000DF
S214005B302DE9F84F8A465549554C0B689346C51AC9
S214005B405448554A241A55481560044424F4FF5412
S214005B5024F01F04A5428846914676D35B445E191E
S214005B60FFF724F908B9FFF719F986426DD8D8F877
S214005B70000000EB0B06B6F5806F03D98222484B77
S214005B801A7060E0474F5A465146384407F05CFDAD
S214005B90454BC8F800601A681AB9332E53D97A6B89
S214005BA01A601B68AC199D421DD8A3421BD203F194
S214005BB01002A24247D85B1B1F443B463B4A07F1F4
S214005BC0100153F8040B8B4242F8040BF9D1374806
S214005BD0FFF70CF910B9324B8422D1E71022FF21CF
S214005BE0384607F03CFD324F06F0030631483B6866
S214005BF0A41B044053B92840C0F500512144FFF7C8
S214005C005BF93C6040B1264B8522B9E7A34203D23C
S214005C10E11A03F50050F2E7D8F800202149921B5C
S214005C20D9F80000FFF756F90446D8F80020D9F84E
S214005C300030921B134415491A48C9F80030FFF784
S214005C406BFF002CDFD1BDE8F88F1B4B5B68B3F110
S214005C50827F134B14D25146002618780AEB0B02AB
S214005C608A4203D1002EEED01870ECE711F8017BC3
S214005C70FF2FF5D00126A54234BF87208320EFE70B
S214005C80A54234BF872283227AE700BF3015002062
S214005C9004010020100000206C0B002033190100C6
S214005CA0690B002030110020F00F0020E00F0020CC
S214005CB03415002000E0FFFFEC010020EFF3108019
S214005CC072B67047054B5B69C3F38512827003F0AA
S214005CD03F021B0B42700370704700BF00C00740B6
S214005CE037B5044601A8FFF7EDFF9DF80630012101
S214005CF023804FF480730020084A638093680A3339
S214005D0003F01F0301FA03F36360956CD36C40EA5B
S214005D100502C4E9022303B030BD00BF0080E00FD7
S214005D20EFF3108072B6704700B962B67047000095
S214005D3010B5034CA01DFEF7FDFF0023236010BD29
S214005D40C00F002010B5094CB4F80710A079FEF774
S214005D50DDFFA368B4F80D10054AC3F30F23938440
S214005D60D184FEF7B5FF0023236010BDC00F0020CE
S214005D70C4060020034B044A9979117500221A6064
S214005D80704700BFC00F0020C4060020FFF7CCBF3E
S214005D9008B5C36800209847024B1868BDE808405D
S214005DA0FFF7C2BFB80F00202DE9F04F984F89B01B
S214005DB03B7806468946039203F0FF0B002B37D14B
S214005DC0FEF7F4FF8246FEF7E9FFBAF1000F00F097
S214005DD01381904BA0F50055D3F80080C3F800B0AF
S214005DE08D4BA5EB0A0593F834101C4600297FD08E
S214005DF01A68924540F000815A68954240F0FC804F
S214005E009968864A914240F0F780DA68062A40F0A0
S214005E10F38040F26C725969914240F0ED80D96B84
S214005E207F4A914240F0E880C3F818B001233B70E7
S214005E30794D95F83430002B00F0DE8046F480284B
S214005E40784E012105F13C00FEF786FC06AB324693
S214005E5041462846FFF728FA0446002840F0D3803B
S214005E609DF81830032B00F0CE80022B00F0CE8079
S214005E703769E86BFFF78CFF002C40F0BD80039B72
S214005E801B78BB42C0F0B88095F834300293002BE4
S214005E9000F0B28001216448FEF75EFC0DF11303AA
S214005EA0604A41465C48FFF7FFF9044698B99DF8FA
S214005EB01330012B40F017813369BB42C0F00D81CF
S214005EC0D6F804B0DFF850A10097009ADAF83C3014
S214005ED0002A40F0B180504BD86BFFF759FF002CDA
S214005EE040F08A80039B1F70029809B0BDE8F08FCF
S214005EF0482203F11000D3F838B007F0B0FB40F2A8
S214005F006C736361454B04F10800A3600623E360ED
S214005F10C4F838B0C4E900A5FEF70BFC404B04F10A
S214005F204000E363FFF7DCFE00286AD1626C002ABB
S214005F3067D06368B3FBF2F3E36194F84330002B59
S214005F405AD00023656C84F85030002D54D0E36995
S214005F50002B51D02268B2FBF5F305FB1323002B70
S214005F604AD1D4F804A0BAFBF5F305FB13A3002B23
S214005F7042D12948FEF731FE82453DD340F63472C1
S214005F806369CC3B934237D8B5F5007F34D3032101
S214005F902548FEF7E1FBD4E90001E36B1B68984750
S214005FA00546E36B0220DB689847D5B941461A4898
S214005FB0FFF736FA1D4B0546984204D1414616486F
S214005FC0FFF72EFA054665B9636C1348A3F114086B
S214005FD0236A03FB08F8FEF700FE154B804538BF22
S214005FE01D46B5FA85F3E06B5B0984F83430FFF79D
S214005FF0CFFE002D3FF41AAF0023039A02931370CE
S21400600072E7002398E700270A4C32E7042730E7B8
S214006010241000200004002028100020F40F002088
S214006020CCD80000801000206410002013E000F0A0
S21400603002E000F00BE000F05B69012205A958467B
S21400604098472C49059B0968C3F3D312914246D161
S21400605003F07F03012B30D905A8FEF78FFA4FF027
S21400606004080646009B9E423BD8B208D84432D06D
S214006070EB6B49465B694046984726F0030306F0FB
S2140060800302019298449944019B6BB1DAF83C30C4
S21400609001225B6906A9404698474846019A06A928
S2140060A007F0D2FA019B9944009B59469B1B504629
S2140060B00093FEF7BEFB834607E7DAF83C30022281
S2140060C05B6906A95846984706A8FEF757FA4FF0A8
S2140060D008080646C6E70196D6E7074CFBE6074CD7
S2140060E0F9E6074CF7E6074C074A022B08BF1446AA
S2140060F0F1E600BF8010002011E000F022E000F082
S21400610023E000F00BE000F00CE000F02DE9F04199
S21400611006460D4614460C4F0CB9BDE8F081EFF369
S214006120108872B623462A4631463846FEF7F3FFF5
S21400613003464046FFF7F8FD002BEDD0E41AA4B264
S2140061401D440026E8E700BF9C0E0020002313B580
S21400615001F1080421461A46ADF80430ADF80600F1
S214006160083151F8100C70B90BB1ADF804200422B8
S21400617001200DEB02010834FFF7C8FF54F8101C8D
S21400618039B902B010BD51F80C3C1A4492B2012342
S214006190E6E734F80C2C0020EDE700007FB500237E
S2140061A00130CDE90433064BCDE9010169460420F0
S2140061B000930392FFF7CAFF07B05DF804FB00BF29
S2140061C0CE0100202822136810B5B3F5804F0ED2FA
S2140061D0EFF3108072B6002407490B780C70FFF7B7
S2140061E0A3FD3BB1BDE8104013681B6A18474FF487
S2140061F0817010BD1846FCE7BC0F002001282DE971
S214006200F34740F03A818B88012B40F038810B68C9
S2140062101B7813BB9C4A9D4C13609D4A13609D4A95
S21400622013609D4A13609D4A13609D4A13709D4AF1
S21400623013609D4A13602278022A01D1FFF7C2FF3D
S214006240012323700024994B1C70994B1C70994BAA
S2140062501C70204602B0BDE8F087032B40F0FA80A1
S214006260944B8A4E1C78002C46D13378002B00F0D5
S214006270E5808B4B1B78082B7CD1834A13689046AD
S2140062806BB928252B68B3F5804F5ED34FF40170A9
S21400629041F20803984200F0D38080242CE013F0EB
S2140062A003070EBF2746C7F10407FFB203EB070A32
S2140062B0BAF5806F00F2C8807F483A461844FF213E
S2140062C007F0CDF9774B724AC8F800A015681A682F
S2140062D0994615445544DFF8C4A125F4FF55DAF86D
S2140062E0000025F01F0585420BD9291A00F500503D
S2140062F0FEF7E2FD18B1852400233370A9E7CAF83B
S214006300005028231B68B3F5804F1BD21B6BB3F5D8
S214006310804F17D21D69684AD8F80030D9F80010A7
S2140063200020A8470546D9F80030D8F8002056497E
S2140063301344DF1B6048C9F80070FFF7EDFB002D23
S2140063409FD0D8E74FF48175EDE7FDF7A3FF00284F
S2140063509ED12B680190B3F5804F07D21B6BB3F527
S214006360804F03D29B69012101A898470122504B18
S2140063701A70C1E7002B65D04C4B1B78002B8CD0D5
S214006380494F3B6843B9444B10224C491868FEF706
S214006390A1FD0028B0D0AEE713F003021CBFC2F187
S2140063A00402D2B203EB0208B8F5806F4CD844481A
S2140063B0FF21184407F053F9424A434BC7F80080C0
S2140063C09B1A424A1344334A23F4FF53156823F0BA
S2140063D01F03AB42914639D8A844FEF7E7FC08B93C
S2140063E0FEF7DCFC804533D83B68DFF8B0801D4400
S2140063F025F4FF55D8F8000025F01F05854209D979
S214006400291A00F50050FEF757FD00287FF473AFF9
S214006410C8F800503A682A49D9F80000FEF75AFD35
S2140064200546D9F800303A681F4913442448C9F88D
S2140064300030FFF771FB002DA5D05CE781245BE7F9
S214006440862459E7842457E7822455E7872453E7B0
S214006450832451E7042B14D1132302211C4C6370B0
S21400646020462170FEF728FC1A4A1B4B128905327B
S2140064709A801A4A1A6062789A710024E9E60D2416
S214006480E7E60624E5E600BF640B00206A0B002062
S214006490741700206C0B0020F00F0020341500202D
S2140064A0C8010020700B002030150020680B00206B
S2140064B0D5010020690B002064070020E00F0020B3
S2140064C030110020100000200401002033190100C4
S2140064D0D40F0020C4060020C00F00206D6B000003
S2140064E028231A6810B5B2F5804F0ED2EFF310804D
S2140064F072B60124074A11781470FFF715FC39B9F3
S214006500BDE810401B68DB6918474FF4817010BD6A
S2140065100020FCE7BC0F00200B4A08B5937E4FF026
S214006520005443F0400393760022084B1A70084B41
S2140065301B782BB1FFF7D4FF064B2360FEF7AAFCAF
S2140065402360FEF7A7FC00BFC4060020200700203B
S214006550D501002002020FF010B5134CA37E5B0697
S21400656021D4FFF73DFA40F2E24225202168A38CB1
S21400657002FB031294F84F102260A27A0A4492FBA0
S214006580F0F100FB11220A21A27222890132228137
S214006590626801FB03236360238B5A1E228313B9B0
S2140065A00820FFF7B9FF10BDC40600202DE9FF4103
S2140065B0294C40F601002189FEF728FBA37E13F044
S2140065C0400242D143F0010303F0FD0362F382036D
S2140065D0224AA376136823B121899288914200D17A
S2140065E09847A37A1E4F234493F82A301D486375B4
S2140065F0FFF728FAD4E900547B6864085B7A1A4AE5
S2140066002E1B012012F803806435FFF7FBF9009675
S2140066100026254401246A464146334638680295DA
S2140066208DF804608DF80C608DF80D408DF80E60C6
S21400663001F0CAFA054622463146386801F048FDA0
S21400664035B1FFF789FFFFF7B1FF04B0BDE8F08171
S214006650064B3B61F9E700BFC4060020C00F0020D0
S21400666038150020D0060020E9D80000D5670000C5
S21400667002282DE9F0411FD002D8012807D0FEE7F6
S214006680032800F09C80FF2800F09980F7E74D4C27
S214006690237B980707D5FFF7A3F9FFF7FDF9237BC0
S2140066A06FF341032373237B990701D4DA0764D47D
S2140066B0BDE8F041FFF7F0B94B784C68DB077ED5B4
S2140066C0227802F00F07032F59D0052F77D13E49C5
S2140066D004F108008B7B03F00103B3EBD21F4CD10F
S2140066E00622083106F0C3FF8046002845D1FFF792
S2140066F077F9FFF761F9354D414606465C22284694
S21400670006F0ADFFAB7E2F8343F02003AB76627EB0
S214006710237E012743EA0223AB84627F237F04F1B2
S2140067201E0043EA0223EB8494F82330C3F30403E9
S21400673085F84F3094F82330C3F3421385F8503071
S2140067401B232B85FEF7F6FAD4F80E30E27CEB60BE
S214006750A37C2E6043EA0223227D2F7543EA024380
S2140067602B6195F84F30607DAB72E18A3944FEF7B5
S214006770CDFAFFF71BFF164B1F70BDE8F081124DD8
S21400678004F10800AB7B03F00103B3EBD21FF4D196
S214006790062205F1080106F06AFF0028EDD1094C33
S2140067A04FF4007394F8392004F138010232286857
S2140067B001F066FC237B43F002032373DDE7FFF75B
S2140067C00FF975E72401002038150020C4060020C4
S2140067D02007002002282DE9F7430F460BD003D8E8
S2140067E0012800F0B281FEE7032800F0B681FF28FA
S2140067F000F0B381F7E748784E6810F00104BA4D10
S21400680061D14FF0FF3140F60300FEF7FFF9264650
S214006810AB7EB64C13F0200F12D0696D6FF34513A4
S214006820AB76002900F09F80237895F8582043F037
S214006830030323706270A01C06F006FF00236B653E
S214006840AB48FEF72BFA003018BF0120AA7E23784B
S21400685060F34102C2F30011AA7661F38203C2F329
S214006860C00262F3C30360F304132370218840F66A
S2140068700200FEF7CBF96278DFF8988202324FF416
S21400688000739A49D2B2D8F8000001F0F9FBAB7E4B
S2140068907C68D90709D56FF30003AB7600236B60DD
S2140068A0FFF78AF82860FEF713FA4EB1237803F054
S2140068B00303022B00F031816DD8012B00F02C81F0
S2140068C003B0BDE8F083318840F60300FEF79EF97A
S2140068D03378A97EC3F3001396F8008063F3820131
S2140068E0A976C8F3C003C1F300118B4206D108F0A5
S2140068F00303022B05D019D8012B31D000263446CD
S21400690015E0A146767896B17A48848AFEF7C6F9ED
S214006910201A80B2B9F1000F04D0022892BF0020DE
S214006920023880B286428CBF002401242646AB7E05
S214006930C8F38008C3F3C002904507D082F0010276
S21400694062F3C303DBB243F02003AB76002C3FF4C4
S2140069505FAFAB7E81F0010161F30413AB7657E7BE
S2140069604FF00009CEE795F82830A21C0DF107017C
S2140069705F48FEF73BFCC0B258B19DF80730002BCD
S2140069800CBF012202222378607062F30103237099
S21400699056E70122F7E7A378022B65D011D8002B23
S2140069A04DD0012B38D0544A127822B1162B7FD006
S2140069B0182B00F08C80072250480221027043708A
S2140069C027E00C2B18D0142B56D0082BEBD1B8F898
S2140069D0201054F8035FC8B205EA0002474801F4E5
S2140069E07F4142EA010504460921002304F8011B01
S2140069F0C0F8015063600CE040484FF0FF3203706F
S214006A000123827043700222037100230621C270A4
S214006A104371FEF751F953E7617A237A384A43EA1D
S214006A20012393801346374943F8061B54F8031F87
S214006A30C2F80610A2889A80A2799A7140E7627B13
S214006A40237B2F4943EA02238B800B462E4A43F8CA
S214006A50062B54F8032FC1F8062062685A60228974
S214006A601A81A27A9A722BE72A89254B05329A80D8
S214006A70264A1A60E278E0E7B4F80530B4F8032056
S214006A80DB08934228BF13462B8515231B4800219D
S214006A906FF004046FF02702037007238170817182
S214006AA04470C27003714471C27103720921B0E769
S214006AB02279E3781148134003F00303022B18BF32
S214006AC0012317224370027083700321A1E76279C5
S214006AD0A1790B4B42EA01229A800D4A1A60D4F83B
S214006AE00320C3F80620EBE6C40600207C1900202D
S214006AF09C0E0020840D0020B40F0020D40F002030
S214006B00C00F0020315D0000455D00006D6B000089
S214006B10755D00003815002000261248A51C818AE5
S214006B20FEF7BCF8081A647880B226B1022892BF35
S214006B300020023880B2A3B283423FF6C1AE2A4696
S214006B4031460848FEF7E7FABAE6074B9B7E9A07F7
S214006B503FF5B6AE5B073FF5B3AEFFF7FDFCFFF7BC
S214006B6025FDADE6840D0020C406002008B5024BC6
S214006B709879FFF7D1FC00BFC00F00202DE9F04F39
S214006B8001288BB040F042818A88002A00F04081BC
S214006B90A14D95F800B0BBF1000F00F03B819F4B74
S214006BA01C7898465CB99E48067882463EB99D4E4B
S214006BB030681718B7F5806F05D982241C702046F8
S214006BC00BB0BDE8F08FDFF87C920968484406F009
S214006BD03BFDBBF1020F376035D0032FEFD9924F44
S214006BE03846FEF785F93B78D9F80020012B8F4B05
S214006BF063D19A4263D1BB68DB0369D502232B704D
S214006C00FFF76EFC28231B68B3F5804F07D21B6B7B
S214006C10B3F5804F03D29B6803A9002098470398DA
S214006C20834B844F1860844B00EA07024FF40051F0
S214006C301A60FEF741F900283AD1FEF7F7F840BB94
S214006C402B78022BBBD17D497D4F08783A6810F02F
S214006C50F70F3368894640F0B380754903F0030B9D
S214006C600D681D441544744BA5EB0B0525F4FF5524
S214006C70186825F01F05854201932CD9291A00F5BE
S214006C800050FEF719F9019B20B3852488F80040D0
S214006C9095E74FF40051D0F83490FEF70DF938B967
S214006CA04FF4005109EA0700FEF706F90028C7D09E
S214006CB0852388F800301C4681E79A4208D0842352
S214006CC088F8003098F80030002B3FF478AFF0E7F3
S214006CD08623F5E71D6028231B68B3F5804F6CD22A
S214006CE01A6BB2F5804F68D233681569A3EB0B03B5
S214006CF0544A39680020A847054632683B68A2EB2C
S214006D000B02134447494F483B60FEF705FF002D32
S214006D10BBD199F80030002B7FF451AF3B687F2B36
S214006D207FF74DAF02A903A8FDF792FA10B9039BAF
S214006D3089F8003099F8003013F0F70F3FF43FAFB2
S214006D4028252A683B68B2F5804F9ED2126BB2F5B2
S214006D50804F9AD20021D2F80C900846394AC8478C
S214006D60002892D13B68384F3360334B1860374B5E
S214006D707B602B68B3F5804F87D29B6A4FF4007117
S214006D8033489847002880D12A683368B2F5804F88
S214006D9039D2D56A39462B4A2D48A8470546326867
S214006DA020492848FEF7B8FE40F203239D421DD036
S214006DB040F201239D4224D101E74FF481759CE700
S214006DC01A443A6028221268B2F5804F12D2D56A69
S214006DD01D491C4A1E48A8470546326811491948ED
S214006DE0FEF79AFE40F203239D4206D101238AF85D
S214006DF00030E4E640F20225EFE740F201239D4230
S214006E0087D0802442E740F20225C8E70024D6E671
S214006E100D24D4E68124D2E66A0B0020690B0020FC
S214006E20680B0020640B0020EC010020EB17A60383
S214006E307417002000E0FFFF34150020C801002072
S214006E40700B002064070020740B0020315B0000EC
S214006E50840B0020FEE700000048704700F049025F
S214006E60084B1B6F03F00703022B04D0032B06D03E
S214006E70012B02D0FEE704487047044870470448D8
S214006E80704700BF00800040C0EA2101002D31019C
S214006E9000F0490208B5FFF7E3FF044B1B6FC3F38E
S214006EA001330133B0FBF3F008BD00BF00800040A3
S214006EB0044B054A9A60D3F8882042F47002C3F85F
S214006EC08820704700ED00E0004000000000000051
S214006ED04FF040232DE98048D3F89430ADB013F03E
S214006EE0400F24AF1BD14FF00053002238461A60E3
S214006EF0FDF7FEFFFDF79AFFC0B1446BFFF7F0FA0F
S214006F00269B5B0740F12883FDF790FF28231B682C
S214006F10B3F5804FC0F0A383FFF754F906E04FF0B7
S214006F2000531A68022ADED100221A603846FEF79D
S214006F30C9FEB94B9B6DDE0318D4B84A136823F418
S214006F40FF0323F4FE4343F4BC1343F4A06313602F
S214006F5052F8043C23F4704343F4404342F8043CA4
S214006F6052F8043C43F4E06342F8043C9DF8913048
S214006F70012B0FD19DF8903063B94FF000531B687A
S214006F80A74B1B68A74B1B68A74B1B68A74B1B6828
S214006F90A74B1B68A74BD3F8802042F00302C3F828
S214006FA080201B6F03F00703032B3CD045F60E0230
S214006FB0994B0221C3F8802041F22802995042F2F0
S214006FC02802012199509A6DD503FCD49A4A9B4910
S214006FD01A619B4A9A611A6A22F00D021A629A6A2C
S214006FE022F0330242F001029A628B4A1346906DF9
S214006FF031EA0000FBD141F22801022050509A6D80
S2140070005400FCD41A694FF0004122F4700242F496
S21400701000121A6141F21802995042F22802022127
S21400702099500121995041F228034FF001087A4DFA
S214007030804CAE6A834845F80380FDF75BF9236F02
S21400704006F0020643F480632367236F23F00703EA
S21400705043F003032367FFF71DFFFDF74BF9FFF728
S21400706019FF794A236F904294BF0020012023F431
S214007070806343EA802323671EB942F2280345F85B
S214007080038001236B4A714DC2F880326B60704BEF
S21400709004241B6C2CAA2B66002302F8984D08A922
S2140070A035200893FEF780FE06238DF81730089BE0
S2140070B08DF8164013F4803F0AAC00F0D9822B6E90
S2140070C08DF828302B6E8DF829302B6E8DF82A30EF
S2140070D02B6E8DF82B302B6E8DF82C302B6E63F0CC
S2140070E03F038DF82D309DF82E3043F001038DF8C8
S2140070F02E30584B5C6000244FF48071564B574A34
S2140071005961C3E900229A601C82554A554B38469D
S214007110C3E900229A605961202221461C8206F0AB
S2140071209EFAB42101238DF893104F498DF89230C2
S21400713025918DF89A305A218DF8A23040230822E6
S2140071408DF89B108DF8A3304849494B38468DF88A
S21400715091208DF899208DF8A1202791299300F091
S214007160A3FC4448444B21460360444B444E4360D2
S21400717000F008FD26A3D3E900233060CDE9002304
S2140071804FF0FF334FF0FF3200F016FF02224FF0B1
S214007190FF31306800F01AFF3A4B394624933068C6
S2140071A003F500332694259300F058FD364D3649F6
S2140071B030682C7000F03BFF10B10134032CF6D180
S2140071C0244C306800F0B8FFB4F900202978306805
S2140071D000F07AFC0146306800F014FF6468DFF8BF
S2140071E0B4A0002C40F05E825046FDF7ADF8B37BAD
S2140071F064F30003B3731022244B254C83F8212339
S214007200002183F8222304F10A0045E0AFF3008052
S214007210083540140000000000C0004034C00040A4
S214007220004000200080002000C000200000012058
S21400723000400120008000402008B00B0300014001
S2140072403C8C8C0300B4C40480F0FA0200C001A891
S2140072500080E00FD80100209C0E0020B40E002015
S2140072609C0D0020840D002020D70000A8D7000029
S21400727064D7000068150020DD5800005C1500206B
S214007280381500203C0094001200002000E100E0C9
S214007290240100204015002083F8262383F82523A8
S2140072A083F8232383F8202383F82423562206F02A
S2140072B0D6F9BC48BC4B4FF49072C4E900032523B2
S2140072C0637201233284B94A237213700023DFF8F5
S2140072D08083B74DC8F800301B232B801E232CAAB2
S2140072E002F89B3D14A93620FEF75EFD20232CAA4B
S2140072F002F89C3D39463920FEF756FD80BBAD4B63
S2140073009DF8152018681B7924903B71002A00F020
S214007310D2811B2A28BF1B22531D8DF8143014A9B6
S214007320531C0DF195008DF8933006F08DF91CA8CE
S214007330FDF70AF8A04A9DF8143012882CA9FA52D4
S2140073409A1C51FA82F200211C9802F8201CBDF803
S2140073507410093342F81F0C22F81B1C8DF81430E9
S21400736020232CAA02F89D3D1CA93A20FEF71CFDFE
S21400737048B9924B1A889B78ADF870208DF8723019
S21400738003238DF8133000224FF002098C4B8D48F2
S214007390C3E900228C4B80F804900360FCF748FF9A
S2140073A08A488B4B80F80490036010230372FDF725
S2140073B02DFE8848884B80F804900360874B80F841
S2140073C00890C360A0F81090CDE900394B4690E8CD
S2140073D006001430FCF708FF9DF81510002900F091
S2140073E07B8114A84FF01009FDF73AFE7C487D4BD0
S2140073F080F804900360FCF71BFF7B487B4B4FF63E
S214007400FE7B036008237A4AA0F810B0C26080F8BA
S214007410049003720393FDF7F9FD7648764AA0F8C8
S21400742010B002600C224FF0020B0272734A80F812
S2140074300490C260FDF7EAFD7148724A039B026041
S214007440714A80F80490C260038280F808B0FDF7A5
S214007450DDFD6E486E4B80F8049003606D4B80F83F
S21400746008B0C36001230382FDF7D0FD6A486B4B6A
S21400747080F8049003606A4B80F808B0C3604FF64B
S214007480FE730382FDF7C2FD6648674B80F80490E2
S2140074900360664B80F808B0C3604FF6FE73038245
S2140074A0FDF7B4FD624B464A1A604FF6FF729A80AB
S2140074B09DF81420202A05D8931D637439465D482C
S2140074C006F0C2F89DF81320202A06D8931D84F8EB
S2140074D039301CA9584806F0B7F8FEF781FA237B26
S2140074E0B27B43F001032373237C02F0010203F016
S2140074F0F00362F386132374637C0BB9062363746C
S214007500BAF804104D4BB068C4F8120099800421F4
S21400751094F8383061F3030362F3861384F8383046
S21400752094F8393013B9062384F83930B068BAF8BD
S2140075300420434BC4F83A009A80FEF7ADFA414C5B
S214007540414B1B78002B40F00781404A136923F01B
S2140075500403136130BFF3E7002C3FF4DDACFDF706
S2140075601DFC8442BFF4D8ACFDF718FC04F14003C0
S21400757083423FF6D1AC2046FDF738FC00283FF4A6
S214007580CBAC6369002B65D1FEF71CFEFDF74EFC05
S2140075900446FDF74BFC2D4B986023689D466368B8
S2140075A09847C3E4D6BE898E55555500B40F0020C3
S2140075B0CA01002034D8000044D8000047D8000094
S2140075C024070020341700204BD800006405002054
S2140075D04ED800003807002051D800000AD7000017
S2140075E05417002054D80000BC05002065D80000C1
S2140075F0FD6100001406002076D800007D6B0000B8
S2140076005C04002087D80000ECD700006C06002041
S21400761098D80000E8D80000B4040020A9D80000DC
S2140076201D4F000004040020BAD80000415200009C
S2140076302C0700203C0100206401002036010020B9
S2140076405E010020F80100202007002000ED00E089
S214007650FC0300209DF89030012B95D154E45B6A22
S21400766098470446FEF7AEFD002C3FF45FAC8DE76E
S2140076700DF1170221462C20FEF796FB00283FF45A
S2140076803AAD0DF1160207A93C20FEF78DFB9DF8DA
S2140076902E3020B19DF81C2062F3000327E560F32E
S2140076A0000324E52068B060A288A379AAF8042025
S2140076B08AF806309FE50E238DF814300A238DF8DD
S2140076C09330B64B1A68CDF895205A681B7ACDF8D9
S2140076D099208DF89D302AE60921B04882E6EFF31E
S2140076E0108672B600230DF119011A46AC48FDF754
S2140076F07DFD3046FEF718FB9DF8193013B10023C8
S214007700C8F80030D8F80020EFF3108672B6C2F53D
S21400771001739BB222440DF11901A148FDF766FDE5
S21400772003463046FEF700FBD8F80000184403284E
S214007730C8F8000010D9B4F8009009F10403984284
S2140077400AD306D86088002704280BD0062800F045
S21400775083810023C8F800309148FDF79FFA00287F
S214007760BDD1F2E6227909F1FF33082A6F809BB279
S21400777000F0DD801BD8042A8A4E37D0062A4CD06B
S214007780022A1AD1022B40F06381B4F80570002259
S214007790B7F5007F28BF4FF4007703231146022079
S2140077A03370A6F80170FEF7F9FC2F80D1E7102A97
S2140077B000F0FE8003D80A2A6ED0062292E0122A33
S2140077C000F09980522AF8D1B4F80500FDF7B6FB10
S2140077D00028BED0037B5B07BBD5A9F1030292B29B
S2140077E07149B4F80500FDF7F7FBB2E7042B79D131
S2140077F0B4F80570B8B2FDF7A1FB58B1027A41683B
S214007800022A0CBF01230223052073703070778094
S21400781003205FE06F800A2264E04FF00203DFF887
S2140078208CB1A9F10702B4F80500B4F8071092B2BB
S2140078308DF844300BF102030093CDF840B001926E
S21400784010AB0CCBFEF708F84FF6FF7A5045814692
S21400785004D16368C3F30F236B80DCE74FF00203A9
S214007860CDE900778DF83430CDF830B001300CAB70
S2140078700CCB514680B2FDF7EFFF072350451CBFE7
S21400788000F1FF3080B23370A6F80190A6F803002E
S2140078900022042011461DE0022B40F0D980B4F8E7
S2140078A00500FDF74BFB00283DD0037B990714D558
S2140078B02B882CAA013B22F88C3D10A9B4F80500B1
S2140078C0FDF764FB024648B90B21364BBDF8242071
S2140078D019701099FEF762FC3BE702226368C3F357
S2140078E00F236B8001262F4B207969881E705870F5
S2140078F059801A71CCE7B4F80500FDF71FFB90B16C
S214007900037B1A0711D5A9F1030292B22649B4F8EF
S2140079100500FDF761FB02460028DFD11321214B4D
S21400792019700146D6E70122D8E70322D6E7A9F167
S214007930050B1FFA8BFBBBF1020F03D0BBF1100F38
S21400794040F08880194BB4F80500B4F8071010937F
S2140079500023CDE900338DF844B010AB0CCBFDF717
S2140079607BFF4FF6FF73984206463FF472AF2B88B4
S2140079702CAA043B22F8963D09A9FDF707FB024610
S21400798008B16E80AEE70921064BBDF81A201970C3
S214007990911C59705E8009993AE700BF3AD80000FA
S2140079A0840D0020CE010020FF01002001020020EF
S2140079B0A9F1050B1FFA8BFBBBF1020F02D0BBF13E
S2140079C0100F47D10027B4F80500B4F80710DFF809
S2140079D0A4A0CDE900775FFA8BFBCDF840A08DF828
S2140079E044B010AB0CCBFDF737FF4FF6FF79484598
S2140079F006463FF42EAFCDE90077CDF838A08DF8D7
S214007A003CB001300EAB0CCB494680B2FDF724FFEC
S214007A1007462B8848452CAAA3F1060318BF00F199
S214007A20FF3722F8963D09A9304618BFBFB2FDF7CA
S214007A30ADFA02460028A4D111210C4BBDF81A203D
S214007A401970111D59705E809F800999052041E7C5
S214007A50042247E7024645E7054B10A91093022388
S214007A60CDE912771193FEF771FB72E6CE01002086
S214007A701000002001020020FEE7000008B5FFF716
S214007A8017FA064A064B07498B4201D3FCF772FBEE
S214007A9052F8040F43F8040BF6E700BFF0F80000B6
S214007AA0100000200401002038B50446054D00F003
S214007AB0D3FA0FCC0FC594E80F0085E80F0000201E
S214007AC038BD00BF7C1A002047F6FF739A4270B597
S214007AD052D0032952D82A4B13F831001D460128EC
S214007AE04FEAC1010CD10B44D878013800B220B15E
S214007AF0596831F910109142F7DC0130C0B270BD00
S214007B000B4458680028FAD0B0F90040944204DBD1
S214007B10B0F902409442B8BF14462822A4F1C80324
S214007B2093FBF2F3294449785B424A1E1BB2934208
S214007B30A8BF13464FF47A7600EBC305EA88AD6813
S214007B40013314FB02521BB222EAE27202F5FA7209
S214007B508B42B2FBF6F204DA00EBC305AD88954221
S214007B60EAD200EBC30333F8040C904228BF104659
S214007B70002808BF0120C1E7FF20C0E70020BEE7BD
S214007B807C1A002070B50E46044678B1084D2B7856
S214007B9063B9084B186000F03BF83146204600F009
S214007BA027F8031C18BF01232B7070BD0020FCE7CC
S214007BB0A01A00209C1A00200846114600F03CB887
S214007BC000B10C3001F048BA00B10C3000F002BA37
S214007BD07047431E012B03D9031F58425841704774
S214007BE00120704708B500F0CFFB0128FBD108BD87
S214007BF038B504460D46002100F002FA2946204614
S214007C0001F0ACF800280CBF2046002038BD00006C
S214007C1010B5044600F070FB44B1054AD4F8803035
S214007C20002B08BF1346034A136010BD636FFFDEC8
S214007C30D17B00001800002010B50C4600F07EFB3B
S214007C401CB1BDE81040FFF7CDBF10BD00B10C3031
S214007C5000F0F8BC00B10C3000F00CBD00B10C30E8
S214007C6001F0DAB8C36E2DE9F74F0446894613B122
S214007C7003898B4253D0D4F86880B8F1000F52D0F5
S214007C80D8F80830002B4ED0D8F80C30002B4AD04D
S214007C900026A4F10C030093B246374647F6FF735E
S214007CA0D4F87CB0D8F80C20524502D87FBB01200F
S214007CB036E01822D8F8085002FB0A55EA894A45E9
S214007CC020D82A8A4A451DD3B5F91220BBF1000FE9
S214007CD00AD0B4F92A11914208DC2F4600233A460E
S214007CE019462046D84715E09A420ED094F8AC10B4
S214007CF000980193FFF7E8FE0646019B22792F467F
S214007D00B24204D90AF1010ACCE7FF26F6E7BBF136
S214007D10000FE3D1A4F80890E76684F8B860002066
S214007D2003B0BDE8F08F0320FAE700002DE9F04F1E
S214007D30534D85B004468A4691468DF80F3001F0C3
S214007D4083FA2E8801F0A0FADFF84081019588B109
S214007D500023C8F8003001F08FFAE36ED8F8002050
S214007D6093420DD163B156450AD10025284605B089
S214007D70BDE8F08FB9F1000FEFD0C8F80000ECE7CF
S214007D8000F002FB012804D0012000F0D7FAFFF72C
S214007D9029FFD4E91A123B4803680290002B61D0F1
S214007DA08B424BD1D8F80000002847D0904245D1EE
S214007DB00027B6EB0A0618BF01263D46D4F87CB06D
S214007DC0BBF1000F55D1217994F8B8309DF80F20FB
S214007DD0994228BF1946204600F0BDFCBDB9A36EE7
S214007DE0029A1360E36EC8F80030B9F1000F02D1B2
S214007DF00EB9002FB9D0019BB9F1000F14BF494648
S214007E0039462046C3F800A000F0B4FE0546B9F196
S214007E10000F01D1002FA9D0B5FA85F03321400913
S214007E2000F072F99DF80F10204600F039FF164B4F
S214007E30E16E1B68A4F10C00984797E71D688DB1AA
S214007E40086885420ED1D8F80010126811B109688A
S214007E5091420AD05968204600F076FE0127054672
S214007E600026ABE712680968F5E7002601273546C5
S214007E70A4E700220DF10F0311462046D847ADE7D0
S214007E80A41A0020A81A002018000020AC1A00200F
S214007E90F8B505460E46FDF711FF3146074628465B
S214007EA0FFF7E0FE044630B9034602463146284650
S214007EB0FFF73CFF04463846FDF736FF2046F8BD80
S214007EC0F8B50D1C18BF01250E46074600241F21D5
S214007ED0284600F019F9304601F08AFE1F21284690
S214007EE087F8C840C7E91A6400F00EF94FF6FF722B
S214007EF01820F168E3B28B420BD3154600230A4ADA
S214007F0029461360094A38461360FFF7C1FF284622
S214007F10F8BDB56800FB0353DD89954202D2002DFB
S214007F20ECD02A460134E5E7A81A0020AC1A002057
S214007F300089704738B50A78054610460C46FFF7A4
S214007F4048FE88B149780846FFF743FE60B10A4309
S214007F50520709D400F018FA430707D421462846EA
S214007F60BDE8384000F0B4BB012038BD0220FCE775
S214007F7000B10C30FFF7DEBF38B5054608780C4672
S214007F80FFF727FE80B14A781046FFF722FE58B169
S214007F90042A09D000F0F8F9830707D421462846BA
S214007FA0BDE8384000F0A2BB012038BD0220FCE747
S214007FB000B10C30FFF7E0BF30B4DDE9024500B198
S214007FC00C30CDE9024530BC00F046B900B10C30AB
S214007FD000F090BA70B504460D46164600F0D4F987
S214007FE001280BD129462046FFF752FF38B9324602
S214007FF029462046BDE8704000F0F4B9022070BD66
S21400800001F04AB938B5044600200D4601F0EEFDF1
S2140080104CB1D4F8883043B9294604F10C00BDE8C9
S214008020384000F0BDBBE36FFFDE022038BD38B538
S214008030044648880D4601F0D9FD4CB1D4F8883086
S21400804043B9294604F10C00BDE8384000F05EBB99
S214008050E36FFFDE022038BD01F0C9BD38B5054626
S2140080600C46FDF72BFEA9696B690C4023436B6138
S214008070FDF75AFE00200CB9002138BD8021FCE730
S21400808000B10C3000F0B7BC00B10C3000F0CDBC35
S2140080904FF4007307B502AA22F8023D0749FFF71E
S2140080A0F3FFBDF80630B3F5007F05D1022808BF00
S2140080B0002003B05DF804FB0120FAE7B01A0020A8
S2140080C00846114600F0C2BB00B10C3000F07EBC82
S2140080D038B5154658B100F10C0411B1204600F031
S2140080E0BBFC35B12046BDE8384000F001BD044673
S2140080F0F3E738BD024B1960024B1860FEE700BF7D
S2140081001C0000202000002008B528B9034B196089
S214008110034B1868FFF7EEFF08BD00BF1C000020E9
S2140081209C1A002010B5044601F006F92046BDE86A
S2140081301040032100F0ECB800B10C30FFF7F2BF9E
S21400814010B54378044643B100F01EF9012804D167
S2140081502046BDE8104001F0DBB8022010BD00B19B
S2140081600C30FFF7EDBF10B54378044643B100F07E
S2140081700BF9012804D12046BDE8104001F0B4B840
S214008180022010BD00B10C30FFF7EDBF70B51E46E3
S214008190437805461446D3B191FAA1F1080A00F0D7
S2140081A0B3FAE30703D5284601F0F0F868B1AA2031
S2140081B0214601F0F9F89DF81020442082F00102D3
S2140081C0314601F061F9002070BD5520F0E702202D
S2140081D0FAE710B49DF804400C3001945DF8044BA7
S2140081E0FFF7D4BF70470000F7B506460C46174D9C
S2140081F039B90A46072104F045FCC5E9004403B036
S214008200F0BD0727124B02A81F600B792B704B7925
S214008210012140F8043D04F051FC019BC2B2D3405A
S21400822000F00F0040EA03106870A379094AAB70AB
S214008230E3793946EB70236830466B602379013367
S21400824013623A4604F01EFCD9E700BF101F00B0C8
S2140082500C6000A8004000A82DE9F34BDDE90A6792
S214008260D0E938890446002588EA060089EA07012D
S21400827001EA030C00EA020B8CEA09018BEA08000B
S214008280C4E9380122F0010006EA000807EA0309FB
S2140082901946CDE9005549F0800348F0004203F046
S2140082A067FB2378DB0720D5D4E93823002003F0CA
S2140082B0800150EA010318D04FF480312046FFF7C2
S2140082C0CDFE237865F300032370D4E9382302EA51
S2140082D0000503EA010655EA060306D005492A46C4
S2140082E009683346A4F10C008847002002B0BDE8B8
S2140082F0F08B00BF24000020034A0368002B08BF51
S2140083001346024A13607047E581000024000020EF
S21400831031F00F0003BF054A01F00F01D3680120BA
S21400832002BF23F00F030B43D3607047181F00B043
S214008330014B002019617047181F00B0F8B50328DC
S21400834020D8DFE800F01D02161900242546012675
S214008350FDF7B4FC07462946304603F001FE3046DA
S2140083602246294603F056FE3846BDE8F840FDF79B
S214008370DBBC00240125EAE7012425462646E7E77C
S2140083800024FAE7F8BD00000F4BDB68C3F3036375
S214008390013B0B2B0DD8DFE803F01414061414145D
S2140083A014080A08080803207047042070470520B0
S2140083B07047064B5B6913F0060F14BF04200120BC
S2140083C070470220704700BF000002A800C001A846
S2140083D0034B1B6F13F0A00F0CBF0120002070474B
S2140083E0000002A87FB515462B79B0F89420012B23
S2140083F029681BD18A421ED8891A1A1C18BF012266
S2140084002C7B022C19D0003418BF0124AB68AE7B3D
S214008410003618BF012602966D7BB5FA85F56D0904
S214008420CDE9004503F0C6FC04B070BD022BE3D1D5
S2140084301A460021E4E70021DFE70023E7E7000013
S2140084400138C0B202284FF060518EBF00220D4B9B
S21400845053F820200C4B00201960A3F580531A60B7
S2140084604FF400124FF080511A60084A936F23F0C1
S214008470060343F004039367054B19600423C2F810
S2140084808C30704724D90000206001A8004000A866
S2140084907C1002A8114B1B7813B10622104B1A60F1
S2140084A00022104BC3F88C204FF0805203F5F033B7
S2140084B07C331A600C4B1B6F13F4800F0B4B08D1E8
S2140084C0C26912F0800F4FF4001216BF08491A60F6
S2140084D00A604FF0605200201A607047B41C0020FB
S2140084E0786000A8004000A8000002A8206001A84C
S2140084F0205001A870B51446C269064682EA0403F5
S2140085000B405340C36108070D4606D5082314F0F8
S214008510080F14BF404A414A1360E90706D50123F5
S21400852014F0010F14BF3C4A3C4A13606A070CD58E
S21400853003F0FEFC4FF4007314F0040F14BF384A27
S214008540384A13600422384B1A60AB0706D502235C
S21400855014F0020F14BF304A304A1360E80606D5FE
S21400856014F0100F14BF00221B22304B5A65290648
S2140085701ED522062CD54FF400122D4B1A60012270
S21400858003F587531A60FDF799FB2A4BDB68C3F3A4
S2140085900363032B06D1284AD36823F0F00343F085
S2140085A0E003D36040F20122204BDA62FDF7BCFB09
S2140085B015F0600F28D004F0600404EA0501402995
S2140085C01D4B23D0602913D0202922D1012217E089
S2140085D0184B1B6F5B02EBD44FF4001196F88830F3
S2140085E0164A1160002BE3D00122154B1A60DFE714
S2140085F0326F72B1116801290BD9526942F001023B
S214008600DA6180220B4B1A61002070BD40F2011225
S214008610F6E70022F4E700BF4C5000A84C6000A824
S214008620245001A8246001A8702002A8004000A8D9
S214008630205001A8000002A8181F00B0206001A862
S214008640005101A8014B186A02F09ABB004001A82D
S214008650036F53B11A68022A07D9586AC0F3072075
S21400866030B11B6AB3FBF0F070470C38FFF7EEBA78
S21400867070470000014B186A02F0AABB004001A830
S214008680026F62B11368022B09D9536AC3F307203D
S21400869040B1126ADBB25343B3FBF0F070470C38BC
S2140086A0FFF7D8BA70470000064BD3F838311B04E2
S2140086B001D4FFF7E5BF0A78034B0448012A18BF28
S2140086C018467047004001A820A1070048E80100AE
S2140086D010B5054A4B780C7810881B0643EA04430D
S2140086E003431360002010BDC41E00B00548036895
S2140086F01A0C0B78120413434A7843EA02230360E9
S21400870000207047C41E00B002F0C0BB70B504461F
S21400871000F1AC060868C4F8AC008B880846A4F8DC
S214008720B0308B88C4F83C31FF23637101F0E4FA63
S214008730054670B9304601F095FB054648B9204617
S21400874001F0C4FC0121A4F8B00004F1800002F09E
S214008750D5FE284670BD70B5054690F8AC000C46B0
S2140087600428164618D0FF2918D001F0B9FBA042FD
S21400877004D895F8AC0001F0B3FB04466C712046B3
S21400878001F04EFCA0F1FF035C425C4116B928469E
S21400879001F0BAFB204670BD0224FBE70124F9E78E
S2140087A038B590F8AC300446042B37D0C56E01714E
S2140087B08DB3C36F1BB990F8B8308B4205D3B4F9AC
S2140087C02A21B5F912309A4211DD002294F8B81029
S2140087D02046FFF7C0FF0546D8B9E0662046FFF7FB
S2140087E0A7FB01462046BDE83840FFF751BB0022F4
S2140087F02046FFF7B0FF054658B9094B1B78022BF9
S21400880007D8204601F062FC012104F1800002F046
S21400881075FE284638BDFF234371FAE70225F8E7C0
S2140088203200002010B5012480F8B44090895468C6
S214008830091A926889B2198102FB01410022196067
S2140088405A6010BD4FF4807104F02EB937B50DF1A3
S21400885006020D4601F010F9044688B185B12B7862
S21400886013F0F70F0CD0FDF729FA074BBDF80620DA
S2140088701C60064B1A806A88054B1A80FDF754FA6E
S214008880204603B030BD00BFB81C0020BC1C002032
S214008890B61C00202DE9F74306461546084619B9CA
S2140088A0012003B0BDE8F083002AF9D0022905D8DC
S2140088B00022114601F0E0F80028F1D00388827803
S2140088C01C0402F007017AD4A1F1070C077990F88E
S2140088D00580C488DCF1000040EB0C0005292873F5
S2140088E094BF0020C2F300106873C2F3801028748F
S2140088F0C2F3C000C2F340126874AA745FBB96F855
S214008900A620013AEA74F269D20652D40639012941
S2140089104FD82C4A063B526D9BB2062269462A481F
S21400892000F01BFFE3049DF9007017D49DF80100CA
S2140089304400E0B2B36F0BB139469847E873AF73A3
S2140089406A7CDDF80210304602F0F0FE0123286053
S2140089502B720020A5E7013FEF74D4E7336FC4F312
S2140089600B04E4008BB11A68022A0ED95B6A13F076
S214008970FF0301D0B4FBF3F4A04516D8BCB1C8EB96
S2140089800828B8FBF4F4E443D3E73046FFF760FE6C
S21400899005F1110181463046FFF786FE0028EBD030
S2140089A009FB04F4B4FBF0F4E6E70020C2E7204637
S2140089B0C0E7002080232860EB81287271E7022040
S2140089C06FE700BF004000A838400044F8B50646F0
S2140089D01446177AFFF75EFF054650B9237A43B16F
S2140089E004F1110127723046FFF75EFE214602F0C1
S2140089F069FE2846F8BDB3FA83F3192B084610B56E
S214008A00114610D0C3F11902D2B2062A28BF062298
S214008A100124931D9C40A4B2A14228BF214600F029
S214008A201FFE204610BD0022F2E70846118810B54A
S214008A30B1FA81F119290DD0C1F11901C9B206297F
S214008A4028BF062101238C1DA340138000F026FEBC
S214008A50002010BD0021F5E70121084A084BD3F895
S214008A60EC3091624FF4005102F5005224325B075D
S214008A70116042BF0422034B1A607047084000444E
S214008A8000400044EC50004438B54B7805460C4690
S214008A90BBB9FFF7FFFCA378BBB940F6FF72104BDB
S214008AA05A62E378ABB940F6FF720E4B5A62602208
S214008AB00D4B1A6003F5E833402224331A60002079
S214008AC038BD1846FFF7BCFCE5E72846FFF7C4FFAD
S214008AD0E7E76022054B1A6003F5D833ECE700BFE2
S214008AE008400044384000444C5000A84C6000A8A1
S214008AF038B54FF4806400200A4BD3F8EC5003F5E9
S214008B0003532C331C60084B186003F055FA4FF4DF
S214008B100052064B1A606A0544BFA3F577631C60D3
S214008B2038BD00BF00400044B81C00205C60004414
S214008B30082310B1024A13607047024AFBE700BFE1
S214008B40701002A8702002A810B51446084601212D
S214008B5002F09AF82046012102F096F8002010BD97
S214008B6010B50349044601F01FFF2067002010BD22
S214008B70FC1F00B02DE93048436A86B0012B04463E
S214008B8000F0838000F1BC05FFF7EAFF2B46E26E9B
S214008B9021892046FFF746FE3D4A236F126893421E
S214008BA01ED0C3B11A68B2B11A69A2B19168C4F8EE
S214008BB08C1011685268C4F88010C4F884201B68B2
S214008BC0032B0FD9D4E92F1201AB204602F020FA6E
S214008BD068B102253FE00022C4E92022C4F88C20B8
S214008BE0002BECD1FFF7D0FB0128FBD1EAE7FFF71B
S214008BF0CBFB0128FBD1284601A902F067FB0546FE
S214008C000028E6D1B4F8C420224B1A642378224AFE
S214008C1060F300032370E36E11685B694A1C1B68EF
S214008C2011D0581C11D1204600F076FCD4E9382328
S214008C30002003F0800150EA010310D1237843F0AE
S214008C400103237007E0591CF0D09A1C03D0194684
S214008C50204600F061FC284606B0BDE830884FF498
S214008C6080312046FFF7FAF9D4E9382302EA000BF0
S214008C7003EA010C5BEA0C03EDD008495A46096882
S214008C806346A4F10C008847E5E70025E3E700BF4C
S214008C90C01C0020008001A84800002024000020FE
S214008CA04FF48062F8B5214B0E462149056F1A60D5
S214008CB0D1F8B4301F4AC3F381231370D1F8B8300B
S214008CC08189C3F3812353704FF6FF73994204469C
S214008CD003D0194B1B6803B19847184F3A68AA424D
S214008CE022D0174B1B682BB1E5B1296801B1A968E2
S214008CF0204698472046FFF7C3FC02F03FFB0725B7
S214008D00204601F0E3F926B9294604F1800002F076
S214008D10F5FB0622236F3B600A4B1A6001220A4BC2
S214008D201A70F8BD2946E3E70125E9E77C2002A88A
S214008D30004000A8C41C0020C81C0020C01C002046
S214008D40B01C0020786000A8B41C00204822002137
S214008D50014804F084BC00BFC81E00B02DE9F341F2
S214008D6088460446002850D004234FF0641280F84A
S214008D70B8304FF6FF73C0E92822C0F8A820244A6E
S214008D804FF0FF378374A0F83231038313804FF01F
S214008D904023C0F848710782D3F8843000F10C06EF
S214008DA003F0C003802B2ED1304602F0B9FF3046C8
S214008DB0FFF7CCFF6022174B04F5A871DA64304643
S214008DC0FFF762FEA26A054639463046FFF792FB79
S214008DD00E234FF00042CDE900338023104619469B
S214008DE002F0C6FD01F048F84DB92046FFF750F9ED
S214008DF00546B8F1000F02D008B92046C0472846FD
S214008E0002B0BDE8F0810225F9E784F8AC00FFDE89
S214008E10D01C0020004000A870B50C46054600F1A6
S214008E2080060988943002F04DFB6188208005F1A9
S214008E309C0002F047FBA188608005F19A0002F0D2
S214008E4041FBE188A08005F1980002F03BFB2189F8
S214008E50E080304602F042FB61892081304602F015
S214008E6045FB07216081304602F048FB002070BDBC
S214008E704FF6FF72B0F82631934211D0094A0A49DC
S214008E80526E100CC2F301120132B3FBF2F30880EB
S214008E90064A074907481B0408601360002070470D
S214008EA003207047004001A8D01C0020645001A891
S214008EB0646001A80000FFFFF7B505460E4614469D
S214008EC0FFF786FA002800F0A9804FF400612846D4
S214008ED003F0EAFD38B14FF400720121504B08460A
S214008EE01A60FEF7A9FE31462846FEF7D1FF064671
S214008EF0002874D12B78980601D4002C48D04FF463
S214008F004062484B1A6014F0020204D1464B4749AF
S214008F101B789B020B604FF44061454B196022B9E9
S214008F20414B444A5B789B02136003F001F84FF410
S214008F30806314F0040F14BF3F4A404A384F136052
S214008F400422402314F0400F3A6014BF3C4A3D4AC6
S214008F50136004F01803182B3B4B43D100221A620F
S214008F602846FFF76FFC38B14FF4807314F0010FFA
S214008F7016BF364A3B601360A00602D52846FFF7A8
S214008F8077FF003418BF01242B7864F345132B7049
S214008F90284600F089F9F8B12846FFF753FCD8B107
S214008FA04FF40031284603F07FFD00280CBF012354
S214008FB00223032201A9264800F0CFFB9DF80410E7
S214008FC0244A01F00703052B9DF8053019D109073F
S214008FD011D443F480735360002000F007FE30463F
S214008FE003B0F0BD210701D50122B8E7E206B5D5EA
S214008FF040F20112B3E713F0040F09D19DF80630D2
S214009000E7E703F03001202905D113F0010FF4E75C
S2140090104FF48073DFE79DF80630DCE70226DEE7D4
S214009020702002A8B46000A8C41C0020B45000A899
S214009030B86000A8B85000A8245001A8246001A871
S21400904088D000A888E000A8181F00B0701002A8FA
S21400905008400044A41E00B073B506461D46FFF740
S2140090602BFF044688B995E803006A4682E80300A9
S2140090709DF80430B6F89A10012B034607D18842B3
S21400908005D20094104602F015FF02B070BD5B1AC0
S2140090900093F7E74FF6FF71084A10B513888B4226
S2140090A009D00748074C1B040460A0F580500360F5
S2140090B00020118010BD0320FCE700BFD01C00205C
S2140090C0646001A80000FFFF504B2DE9F3471C68C1
S2140090D081468A46154604B10C3480214C4801EA84
S2140090E00A0300EA0902134352D0002309F00042A3
S2140090F0134309D0474B1B6803F07F43B3F1007F4F
S21400910002BF0222444B1A60002309F001021343F7
S2140091102FD04FF000080022002300210120CDE9C7
S214009120008802F025FC012001F074FE41466081B3
S2140091300120FEF781FD394B1B6F5A0208D4E36904
S21400914013F0800F4FF4001314BF354A354A1360EE
S214009150354B1A683AB16FF0FF0034490240086098
S214009160A1F580510A6000221A60237843F00403B8
S214009170237000220AF08003134309D00121204601
S214009180FEF76CFF2AF0800749EA000947EA010A61
S214009190D4E9382309EA02000AEA030102460B462C
S2140091A0134306460F4616D0214BA4F10C0019684F
S2140091B03B468847002306F0080213431EBF0022E2
S2140091C01C4B1A6008231C4A1F40164056EA070329
S2140091D001D0FFF75FFFEB070AD51849184A086861
S2140091E00021136811600121164A117003B19847D7
S2140091F015F00E0F06D03921002002B0BDE8F0476A
S214009200FEF782BF02B0BDE8F08700BF9C1A0020C0
S21400921001000080C41E00B0081002A8000002A8CA
S214009220205001A8206001A8CC1C002020E000A847
S21400923024000020B81C00200000C0BFD81C00205E
S214009240D41C0020D21C002008B5094BD3F84C31A2
S2140092505A1C0BD05B0009D40320FFF76FF84FF0C1
S2140092608062044B1A60012243F8682C08BD00BFD8
S2140092700080E00F7C1002A84FF40022014B1A6019
S214009280704700BF702002A8024B186FC0F3C040A2
S214009290704700BF000002A8014B024A1A607047E0
S2140092A0B01C0020E9810000802103F0FDBB000017
S2140092B008B54378033BDBB2032B96BF084A002170
S2140092C0D15CFFF735F8012001F0B8F84FF4F062F2
S2140092D0044B1A604FF40072A3F580531A6008BD61
S2140092E030D900004C6000A8012310B580F8883003
S2140092F02823A0F892300423044643700349FEF75F
S214009300DFFD2046FFF7D4FF002010BD74F70000F5
S214009310012310B580F888302823A0F89230022365
S214009320044643700349FEF7CBFD2046FFF7C0FF17
S214009330002010BD18F3000038B504460F4D28680D
S21400934001F074FCAB68186801F070FC0C4B9B686D
S214009350186801F06BFC0B4B9B68186801F066FC04
S214009360094B9B68186801F061FC2046FFF7D0FFA8
S2140093702046BDE83840FFF79BBF00BF18F300004B
S21400938074F7000038F00000A8F1000040780538B7
S21400939001288CBF00200120704700000022014BEE
S2140093A01A707047DC1C00202F4B70B51A781AB163
S2140093B02E4A926E8A4256D001221A702C4A01F02A
S2140093C0030383F0010313449C780D461E2305F027
S2140093D00706965D013B34444FEA5505F7D147F63C
S2140093E0FE72244B55281A60234B03FB04F36FF4DC
S2140093F081744FEA934323444FF00F0402EA430379
S2140094001E4A1360194B9966C2F8344E0CBF0124ED
S2140094100224A2F5E672146091FAA1F190FAA0F087
S2140094204FF0FF32D3F838311B045EBF4B08000FF5
S21400943043EAC070124B48BF05211A604FF0F04255
S21400944048BF1048A3F58053186058BF490003F57D
S214009450805303F10C0358BF01F002011A60C906DD
S214009460A3F58053196070BDDC1C0020004001A8E5
S21400947064D90000306201A836FC1000305201A802
S214009480046101A8B756351210B50724134B1C60AB
S214009490134B144CAAB141F0400158639963012361
S2140094A02360114BD3F8383113F4004F4FF4804348
S2140094B000D152B90D490B6052B14FF480430C4AAB
S2140094C007E05A639A632260EBE70A4A1360F4E700
S2140094D0094A13605360936010BD00BF3C6000A84B
S2140094E0004000A83C5000A8004001A8B45000A8C6
S2140094F0B86000A8B46000A8B85000A8054BC3F830
S2140095005012C3F8541219B142F20102C3F82822CD
S214009510704700BF004001A838B50C46054600F06D
S21400952043F82146FFF7EAFF45B1EB6E33B15B69BE
S21400953023B1621C08BF6FF001041C60002038BD18
S21400954038B505460C4600F02FF8074B40B9D3F85F
S214009550481204B121602846BDE83840FFF7DCBF5A
S214009560D3F84C12F5E700BF0080E00F07B50A4BB2
S2140095701A7808236AB9094A136000230193084B36
S214009580186800B10C3001A9FFF7DAFF03B05DF8E8
S21400959004FB044AF0E700BF28000020FC1302A8E2
S2140095A09C1A0020FC2302A8014B1878704700BFC5
S2140095B0280000204FF4803342F2E00209498B5025
S2140095C0094A1360094B9A68D1B2C2F3072299641C
S2140095D09A6404229A6400229A649A649A649A644A
S2140095E09A64704700400044EC5000443840004401
S2140095F02DE9F74F06681C469DF8303006F0070642
S2140096000193B31D01269E40771E8A46436804EAEE
S2140096100701A6EB010843F0005B4245054691466C
S214009620594418D94246504604F00EF8A9EB0802F1
S21400963059460AEB080004F007F8019B43B14C4476
S2140096403E433440EC60AB68A3421CBF0223AB62CF
S21400965003B0BDE8F08F504603F0F6FFEDE70000DC
S21400966038B50C4C0D4622606060FCF727FB0021E5
S214009670094BD3F8E020E16052075CBF42F2E002FB
S2140096800421A56058BF9950FCF74EFB0DB102238C
S214009690A36238BD084000440040004440F6FF7214
S2140096A0034B1860034B196058605A62704700BF3E
S2140096B0E01C002038400044042A2DE9F84F0546F7
S2140096C006D8013A032A2CD8DFE802F043403D3A98
S2140096D001260B78141F83614B7801F1040883611F
S2140096E08B788361CB7883610368D0F8089003F0A9
S2140096F0070306339E4006F1FF3A0AEA09006F6840
S214009700A6EB000B5C4547F000570CD841463844A2
S214009710224603F099FF04EB090246EA0A063240A5
S214009720AA60BDE8F88F5A464146384403F08CFFDD
S21400973008EB0B01A4EB0B02384603F085FFEAE7C3
S2140097400B78013183610B780131AB610B78013105
S214009750AB610B78AB61BDE8F88F37B500251446D2
S2140097600095FFF745FF204603B030BD402938B5C9
S21400977014464FF001030BD8074D0A46AB6201466C
S2140097802846FFF799FF2CB104230020AB6238BDB2
S2140097901846FCE72046FAE79840004438B5FCF740
S2140097A08DFA0122194B1A499A629A651A6359630F
S2140097B007215965174B42F2E00419800023164929
S2140097C0164D0B804FF4A0212951154C21601549E8
S2140097D00B60154B1B6F5C0212D54FF48004134BC5
S2140097E013491B680C607BB1996A090608D44FF4CC
S2140097F0001493F894300F490C600BB10E4B1A60AE
S214009800BDE83840FCF790BADB69FFDE384000441C
S214009810E81C00206A1D0020681D0020004000444F
S214009820EC5000446C1D0020000002A89C1A00208A
S214009830702002A8206001A8005101A807220B4B47
S214009840F0211A8000220A4B1A800A4B1A604FF445
S214009850005258605A62084A1160A021A2F5805250
S214009860116001229A62FFF799BF00BF6A1D0020AF
S214009870681D002098400044486000A82DE9F0418B
S214009880044698B1FCF71AFA434E444B3188022C32
S21400989001F07F0202F0780705461F44DFF820C17A
S2140098A067D1DCF8004024B9FCF73EFA0320BDE897
S2140098B0F08124F00104DCF8000020F00100A04252
S2140098C05BD10023CCF800302388BC426FEA4343C8
